{
  "address": "0xc43402733040ab5342c09474d8A5DaA9b5B5E17a",
  "abi": [
    {
      "inputs": [],
      "stateMutability": "nonpayable",
      "type": "constructor"
    },
    {
      "anonymous": false,
      "inputs": [
        {
          "indexed": true,
          "internalType": "address",
          "name": "owner",
          "type": "address"
        },
        {
          "indexed": true,
          "internalType": "address",
          "name": "approved",
          "type": "address"
        },
        {
          "indexed": true,
          "internalType": "uint256",
          "name": "tokenId",
          "type": "uint256"
        }
      ],
      "name": "Approval",
      "type": "event"
    },
    {
      "anonymous": false,
      "inputs": [
        {
          "indexed": true,
          "internalType": "address",
          "name": "owner",
          "type": "address"
        },
        {
          "indexed": true,
          "internalType": "address",
          "name": "operator",
          "type": "address"
        },
        {
          "indexed": false,
          "internalType": "bool",
          "name": "approved",
          "type": "bool"
        }
      ],
      "name": "ApprovalForAll",
      "type": "event"
    },
    {
      "anonymous": false,
      "inputs": [
        {
          "indexed": true,
          "internalType": "address",
          "name": "from",
          "type": "address"
        },
        {
          "indexed": true,
          "internalType": "address",
          "name": "to",
          "type": "address"
        },
        {
          "indexed": true,
          "internalType": "uint256",
          "name": "tokenId",
          "type": "uint256"
        }
      ],
      "name": "Transfer",
      "type": "event"
    },
    {
      "inputs": [
        {
          "internalType": "address",
          "name": "to",
          "type": "address"
        },
        {
          "internalType": "uint256",
          "name": "tokenId",
          "type": "uint256"
        }
      ],
      "name": "approve",
      "outputs": [],
      "stateMutability": "nonpayable",
      "type": "function"
    },
    {
      "inputs": [
        {
          "internalType": "address",
          "name": "owner",
          "type": "address"
        }
      ],
      "name": "balanceOf",
      "outputs": [
        {
          "internalType": "uint256",
          "name": "",
          "type": "uint256"
        }
      ],
      "stateMutability": "view",
      "type": "function"
    },
    {
      "inputs": [
        {
          "internalType": "uint256",
          "name": "tokenId",
          "type": "uint256"
        }
      ],
      "name": "getApproved",
      "outputs": [
        {
          "internalType": "address",
          "name": "",
          "type": "address"
        }
      ],
      "stateMutability": "view",
      "type": "function"
    },
    {
      "inputs": [
        {
          "internalType": "address",
          "name": "owner",
          "type": "address"
        },
        {
          "internalType": "address",
          "name": "operator",
          "type": "address"
        }
      ],
      "name": "isApprovedForAll",
      "outputs": [
        {
          "internalType": "bool",
          "name": "",
          "type": "bool"
        }
      ],
      "stateMutability": "view",
      "type": "function"
    },
    {
      "inputs": [
        {
          "internalType": "address",
          "name": "to",
          "type": "address"
        },
        {
          "internalType": "string",
          "name": "uri",
          "type": "string"
        }
      ],
      "name": "lockMint",
      "outputs": [
        {
          "internalType": "uint256",
          "name": "",
          "type": "uint256"
        }
      ],
      "stateMutability": "nonpayable",
      "type": "function"
    },
    {
      "inputs": [
        {
          "internalType": "uint256",
          "name": "tokenId",
          "type": "uint256"
        }
      ],
      "name": "lockToken",
      "outputs": [],
      "stateMutability": "nonpayable",
      "type": "function"
    },
    {
      "inputs": [
        {
          "internalType": "uint256",
          "name": "tokenId",
          "type": "uint256"
        }
      ],
      "name": "locked",
      "outputs": [
        {
          "internalType": "bool",
          "name": "",
          "type": "bool"
        }
      ],
      "stateMutability": "view",
      "type": "function"
    },
    {
      "inputs": [
        {
          "internalType": "uint256",
          "name": "",
          "type": "uint256"
        }
      ],
      "name": "lockedTOkens",
      "outputs": [
        {
          "internalType": "bool",
          "name": "",
          "type": "bool"
        }
      ],
      "stateMutability": "view",
      "type": "function"
    },
    {
      "inputs": [],
      "name": "name",
      "outputs": [
        {
          "internalType": "string",
          "name": "",
          "type": "string"
        }
      ],
      "stateMutability": "view",
      "type": "function"
    },
    {
      "inputs": [
        {
          "internalType": "uint256",
          "name": "tokenId",
          "type": "uint256"
        }
      ],
      "name": "ownerOf",
      "outputs": [
        {
          "internalType": "address",
          "name": "",
          "type": "address"
        }
      ],
      "stateMutability": "view",
      "type": "function"
    },
    {
      "inputs": [
        {
          "internalType": "address",
          "name": "to",
          "type": "address"
        },
        {
          "internalType": "string",
          "name": "uri",
          "type": "string"
        }
      ],
      "name": "safeMint",
      "outputs": [
        {
          "internalType": "uint256",
          "name": "",
          "type": "uint256"
        }
      ],
      "stateMutability": "nonpayable",
      "type": "function"
    },
    {
      "inputs": [
        {
          "internalType": "address",
          "name": "from",
          "type": "address"
        },
        {
          "internalType": "address",
          "name": "to",
          "type": "address"
        },
        {
          "internalType": "uint256",
          "name": "tokenId",
          "type": "uint256"
        }
      ],
      "name": "safeTransferFrom",
      "outputs": [],
      "stateMutability": "nonpayable",
      "type": "function"
    },
    {
      "inputs": [
        {
          "internalType": "address",
          "name": "from",
          "type": "address"
        },
        {
          "internalType": "address",
          "name": "to",
          "type": "address"
        },
        {
          "internalType": "uint256",
          "name": "tokenId",
          "type": "uint256"
        },
        {
          "internalType": "bytes",
          "name": "data",
          "type": "bytes"
        }
      ],
      "name": "safeTransferFrom",
      "outputs": [],
      "stateMutability": "nonpayable",
      "type": "function"
    },
    {
      "inputs": [
        {
          "internalType": "address",
          "name": "operator",
          "type": "address"
        },
        {
          "internalType": "bool",
          "name": "approved",
          "type": "bool"
        }
      ],
      "name": "setApprovalForAll",
      "outputs": [],
      "stateMutability": "nonpayable",
      "type": "function"
    },
    {
      "inputs": [
        {
          "internalType": "bytes4",
          "name": "interfaceId",
          "type": "bytes4"
        }
      ],
      "name": "supportsInterface",
      "outputs": [
        {
          "internalType": "bool",
          "name": "",
          "type": "bool"
        }
      ],
      "stateMutability": "view",
      "type": "function"
    },
    {
      "inputs": [],
      "name": "symbol",
      "outputs": [
        {
          "internalType": "string",
          "name": "",
          "type": "string"
        }
      ],
      "stateMutability": "view",
      "type": "function"
    },
    {
      "inputs": [
        {
          "internalType": "uint256",
          "name": "tokenId",
          "type": "uint256"
        }
      ],
      "name": "tokenURI",
      "outputs": [
        {
          "internalType": "string",
          "name": "",
          "type": "string"
        }
      ],
      "stateMutability": "view",
      "type": "function"
    },
    {
      "inputs": [
        {
          "internalType": "address",
          "name": "from",
          "type": "address"
        },
        {
          "internalType": "address",
          "name": "to",
          "type": "address"
        },
        {
          "internalType": "uint256",
          "name": "tokenId",
          "type": "uint256"
        }
      ],
      "name": "transferFrom",
      "outputs": [],
      "stateMutability": "nonpayable",
      "type": "function"
    }
  ],
  "transactionHash": "0xee5887ae903fa8381e71235cf93d9befb3bf502ab12730a8549fcefe34f7e3e8",
  "args": [],
  "numDeployments": 1,
  "solcInputHash": "2b9d1bbafdcb6c3fd1cd52f4aaf2b8ff",
  "bytecode": "0x60806040523480156200001157600080fd5b506040518060400160405280600481526020017f536f756c000000000000000000000000000000000000000000000000000000008152506040518060400160405280600381526020017f5342540000000000000000000000000000000000000000000000000000000000815250816000908051906020019062000096929190620000b8565b508060019080519060200190620000af929190620000b8565b505050620001cd565b828054620000c69062000168565b90600052602060002090601f016020900481019282620000ea576000855562000136565b82601f106200010557805160ff191683800117855562000136565b8280016001018555821562000136579182015b828111156200013557825182559160200191906001019062000118565b5b50905062000145919062000149565b5090565b5b80821115620001645760008160009055506001016200014a565b5090565b600060028204905060018216806200018157607f821691505b602082108114156200019857620001976200019e565b5b50919050565b7f4e487b7100000000000000000000000000000000000000000000000000000000600052602260045260246000fd5b612c6b80620001dd6000396000f3fe608060405234801561001057600080fd5b50600436106101165760003560e01c806395d89b41116100a2578063b88d4fde11610071578063b88d4fde14610303578063c87b56dd1461031f578063d204c45e1461034f578063e11d5c0d1461037f578063e985e9c5146103af57610116565b806395d89b411461026957806395e7796914610287578063a22cb465146102b7578063b45a3c0e146102d357610116565b806323b872dd116100e957806323b872dd146101b557806342842e0e146101d15780636352211e146101ed57806370a082311461021d57806380f203631461024d57610116565b806301ffc9a71461011b57806306fdde031461014b578063081812fc14610169578063095ea7b314610199575b600080fd5b61013560048036038101906101309190611e5f565b6103df565b604051610142919061222b565b60405180910390f35b6101536104c1565b6040516101609190612246565b60405180910390f35b610183600480360381019061017e9190611eb9565b610553565b60405161019091906121c4565b60405180910390f35b6101b360048036038101906101ae9190611e1f565b610599565b005b6101cf60048036038101906101ca9190611cad565b6106b1565b005b6101eb60048036038101906101e69190611cad565b610711565b005b61020760048036038101906102029190611eb9565b610731565b60405161021491906121c4565b60405180910390f35b61023760048036038101906102329190611c40565b6107e3565b6040516102449190612428565b60405180910390f35b61026760048036038101906102629190611eb9565b61089b565b005b610271610940565b60405161027e9190612246565b60405180910390f35b6102a1600480360381019061029c9190611eb9565b6109d2565b6040516102ae919061222b565b60405180910390f35b6102d160048036038101906102cc9190611d83565b6109f2565b005b6102ed60048036038101906102e89190611eb9565b610a08565b6040516102fa919061222b565b60405180910390f35b61031d60048036038101906103189190611d00565b610a32565b005b61033960048036038101906103349190611eb9565b610a94565b6040516103469190612246565b60405180910390f35b61036960048036038101906103649190611dc3565b610aa6565b6040516103769190612428565b60405180910390f35b61039960048036038101906103949190611dc3565b610ade565b6040516103a69190612428565b60405180910390f35b6103c960048036038101906103c49190611c6d565b610b00565b6040516103d6919061222b565b60405180910390f35b60007f80ac58cd000000000000000000000000000000000000000000000000000000007bffffffffffffffffffffffffffffffffffffffffffffffffffffffff1916827bffffffffffffffffffffffffffffffffffffffffffffffffffffffff191614806104aa57507f5b5e139f000000000000000000000000000000000000000000000000000000007bffffffffffffffffffffffffffffffffffffffffffffffffffffffff1916827bffffffffffffffffffffffffffffffffffffffffffffffffffffffff1916145b806104ba57506104b982610b94565b5b9050919050565b6060600080546104d09061267e565b80601f01602080910402602001604051908101604052809291908181526020018280546104fc9061267e565b80156105495780601f1061051e57610100808354040283529160200191610549565b820191906000526020600020905b81548152906001019060200180831161052c57829003601f168201915b5050505050905090565b600061055e82610bfe565b6004600083815260200190815260200160002060009054906101000a900473ffffffffffffffffffffffffffffffffffffffff169050919050565b60006105a482610731565b90508073ffffffffffffffffffffffffffffffffffffffff168373ffffffffffffffffffffffffffffffffffffffff161415610615576040517f08c379a000000000000000000000000000000000000000000000000000000000815260040161060c906123c8565b60405180910390fd5b8073ffffffffffffffffffffffffffffffffffffffff16610634610c49565b73ffffffffffffffffffffffffffffffffffffffff16148061066357506106628161065d610c49565b610b00565b5b6106a2576040517f08c379a000000000000000000000000000000000000000000000000000000000815260040161069990612348565b60405180910390fd5b6106ac8383610c51565b505050565b6106c26106bc610c49565b82610d0a565b610701576040517f08c379a00000000000000000000000000000000000000000000000000000000081526004016106f890612408565b60405180910390fd5b61070c838383610d9f565b505050565b61072c83838360405180602001604052806000815250610a32565b505050565b6000806002600084815260200190815260200160002060009054906101000a900473ffffffffffffffffffffffffffffffffffffffff169050600073ffffffffffffffffffffffffffffffffffffffff168173ffffffffffffffffffffffffffffffffffffffff1614156107da576040517f08c379a00000000000000000000000000000000000000000000000000000000081526004016107d1906123a8565b60405180910390fd5b80915050919050565b60008073ffffffffffffffffffffffffffffffffffffffff168273ffffffffffffffffffffffffffffffffffffffff161415610854576040517f08c379a000000000000000000000000000000000000000000000000000000000815260040161084b90612308565b60405180910390fd5b600360008373ffffffffffffffffffffffffffffffffffffffff1673ffffffffffffffffffffffffffffffffffffffff168152602001908152602001600020549050919050565b3373ffffffffffffffffffffffffffffffffffffffff166108bb82610731565b73ffffffffffffffffffffffffffffffffffffffff1614610911576040517f08c379a0000000000000000000000000000000000000000000000000000000008152600401610908906123e8565b60405180910390fd5b60016008600083815260200190815260200160002060006101000a81548160ff02191690831515021790555050565b60606001805461094f9061267e565b80601f016020809104026020016040519081016040528092919081815260200182805461097b9061267e565b80156109c85780601f1061099d576101008083540402835291602001916109c8565b820191906000526020600020905b8154815290600101906020018083116109ab57829003601f168201915b5050505050905090565b60086020528060005260406000206000915054906101000a900460ff1681565b610a046109fd610c49565b8383611006565b5050565b60006008600083815260200190815260200160002060009054906101000a900460ff169050919050565b610a43610a3d610c49565b83610d0a565b610a82576040517f08c379a0000000000000000000000000000000000000000000000000000000008152600401610a7990612408565b60405180910390fd5b610a8e84848484611173565b50505050565b6060610a9f826111cf565b9050919050565b6000610ab260076112e2565b6000610abe60076112f8565b9050610aca8482611306565b610ad48184611324565b8091505092915050565b600080610aeb8484610aa6565b9050610af68161089b565b8091505092915050565b6000600560008473ffffffffffffffffffffffffffffffffffffffff1673ffffffffffffffffffffffffffffffffffffffff16815260200190815260200160002060008373ffffffffffffffffffffffffffffffffffffffff1673ffffffffffffffffffffffffffffffffffffffff16815260200190815260200160002060009054906101000a900460ff16905092915050565b60007f01ffc9a7000000000000000000000000000000000000000000000000000000007bffffffffffffffffffffffffffffffffffffffffffffffffffffffff1916827bffffffffffffffffffffffffffffffffffffffffffffffffffffffff1916149050919050565b610c0781611398565b610c46576040517f08c379a0000000000000000000000000000000000000000000000000000000008152600401610c3d906123a8565b60405180910390fd5b50565b600033905090565b816004600083815260200190815260200160002060006101000a81548173ffffffffffffffffffffffffffffffffffffffff021916908373ffffffffffffffffffffffffffffffffffffffff160217905550808273ffffffffffffffffffffffffffffffffffffffff16610cc483610731565b73ffffffffffffffffffffffffffffffffffffffff167f8c5be1e5ebec7d5bd14f71427d1e84f3dd0314c0f7b2291e5b200ac8c7c3b92560405160405180910390a45050565b600080610d1683610731565b90508073ffffffffffffffffffffffffffffffffffffffff168473ffffffffffffffffffffffffffffffffffffffff161480610d585750610d578185610b00565b5b80610d9657508373ffffffffffffffffffffffffffffffffffffffff16610d7e84610553565b73ffffffffffffffffffffffffffffffffffffffff16145b91505092915050565b8273ffffffffffffffffffffffffffffffffffffffff16610dbf82610731565b73ffffffffffffffffffffffffffffffffffffffff1614610e15576040517f08c379a0000000000000000000000000000000000000000000000000000000008152600401610e0c90612288565b60405180910390fd5b600073ffffffffffffffffffffffffffffffffffffffff168273ffffffffffffffffffffffffffffffffffffffff161415610e85576040517f08c379a0000000000000000000000000000000000000000000000000000000008152600401610e7c906122c8565b60405180910390fd5b610e90838383611404565b610e9b600082610c51565b6001600360008573ffffffffffffffffffffffffffffffffffffffff1673ffffffffffffffffffffffffffffffffffffffff1681526020019081526020016000206000828254610eeb9190612594565b925050819055506001600360008473ffffffffffffffffffffffffffffffffffffffff1673ffffffffffffffffffffffffffffffffffffffff1681526020019081526020016000206000828254610f42919061250d565b92505081905550816002600083815260200190815260200160002060006101000a81548173ffffffffffffffffffffffffffffffffffffffff021916908373ffffffffffffffffffffffffffffffffffffffff160217905550808273ffffffffffffffffffffffffffffffffffffffff168473ffffffffffffffffffffffffffffffffffffffff167fddf252ad1be2c89b69c2b068fc378daa952ba7f163c4a11628f55a4df523b3ef60405160405180910390a461100183838361147b565b505050565b8173ffffffffffffffffffffffffffffffffffffffff168373ffffffffffffffffffffffffffffffffffffffff161415611075576040517f08c379a000000000000000000000000000000000000000000000000000000000815260040161106c906122e8565b60405180910390fd5b80600560008573ffffffffffffffffffffffffffffffffffffffff1673ffffffffffffffffffffffffffffffffffffffff16815260200190815260200160002060008473ffffffffffffffffffffffffffffffffffffffff1673ffffffffffffffffffffffffffffffffffffffff16815260200190815260200160002060006101000a81548160ff0219169083151502179055508173ffffffffffffffffffffffffffffffffffffffff168373ffffffffffffffffffffffffffffffffffffffff167f17307eab39ab6107e8899845ad3d59bd9653f200f220920489ca2b5937696c3183604051611166919061222b565b60405180910390a3505050565b61117e848484610d9f565b61118a84848484611480565b6111c9576040517f08c379a00000000000000000000000000000000000000000000000000000000081526004016111c090612268565b60405180910390fd5b50505050565b60606111da82610bfe565b60006006600084815260200190815260200160002080546111fa9061267e565b80601f01602080910402602001604051908101604052809291908181526020018280546112269061267e565b80156112735780601f1061124857610100808354040283529160200191611273565b820191906000526020600020905b81548152906001019060200180831161125657829003601f168201915b505050505090506000611284611617565b905060008151141561129a5781925050506112dd565b6000825111156112cf5780826040516020016112b79291906121a0565b604051602081830303815290604052925050506112dd565b6112d88461162e565b925050505b919050565b6001816000016000828254019250508190555050565b600081600001549050919050565b611320828260405180602001604052806000815250611696565b5050565b61132d82611398565b61136c576040517f08c379a000000000000000000000000000000000000000000000000000000000815260040161136390612328565b60405180910390fd5b80600660008481526020019081526020016000209080519060200190611393929190611a54565b505050565b60008073ffffffffffffffffffffffffffffffffffffffff166002600084815260200190815260200160002060009054906101000a900473ffffffffffffffffffffffffffffffffffffffff1673ffffffffffffffffffffffffffffffffffffffff1614159050919050565b600015156008600083815260200190815260200160002060009054906101000a900460ff1615151461146b576040517f08c379a000000000000000000000000000000000000000000000000000000000815260040161146290612388565b60405180910390fd5b6114768383836116f1565b505050565b505050565b60006114a18473ffffffffffffffffffffffffffffffffffffffff166116f6565b1561160a578373ffffffffffffffffffffffffffffffffffffffff1663150b7a026114ca610c49565b8786866040518563ffffffff1660e01b81526004016114ec94939291906121df565b602060405180830381600087803b15801561150657600080fd5b505af192505050801561153757506040513d601f19601f820116820180604052508101906115349190611e8c565b60015b6115ba573d8060008114611567576040519150601f19603f3d011682016040523d82523d6000602084013e61156c565b606091505b506000815114156115b2576040517f08c379a00000000000000000000000000000000000000000000000000000000081526004016115a990612268565b60405180910390fd5b805181602001fd5b63150b7a0260e01b7bffffffffffffffffffffffffffffffffffffffffffffffffffffffff1916817bffffffffffffffffffffffffffffffffffffffffffffffffffffffff19161491505061160f565b600190505b949350505050565b606060405180602001604052806000815250905090565b606061163982610bfe565b6000611643611617565b90506000815111611663576040518060200160405280600081525061168e565b8061166d84611719565b60405160200161167e9291906121a0565b6040516020818303038152906040525b915050919050565b6116a0838361187a565b6116ad6000848484611480565b6116ec576040517f08c379a00000000000000000000000000000000000000000000000000000000081526004016116e390612268565b60405180910390fd5b505050565b505050565b6000808273ffffffffffffffffffffffffffffffffffffffff163b119050919050565b60606000821415611761576040518060400160405280600181526020017f30000000000000000000000000000000000000000000000000000000000000008152509050611875565b600082905060005b6000821461179357808061177c906126e1565b915050600a8261178c9190612563565b9150611769565b60008167ffffffffffffffff8111156117af576117ae612817565b5b6040519080825280601f01601f1916602001820160405280156117e15781602001600182028036833780820191505090505b5090505b6000851461186e576001826117fa9190612594565b9150600a85611809919061272a565b6030611815919061250d565b60f81b81838151811061182b5761182a6127e8565b5b60200101907effffffffffffffffffffffffffffffffffffffffffffffffffffffffffffff1916908160001a905350600a856118679190612563565b94506117e5565b8093505050505b919050565b600073ffffffffffffffffffffffffffffffffffffffff168273ffffffffffffffffffffffffffffffffffffffff1614156118ea576040517f08c379a00000000000000000000000000000000000000000000000000000000081526004016118e190612368565b60405180910390fd5b6118f381611398565b15611933576040517f08c379a000000000000000000000000000000000000000000000000000000000815260040161192a906122a8565b60405180910390fd5b61193f60008383611404565b6001600360008473ffffffffffffffffffffffffffffffffffffffff1673ffffffffffffffffffffffffffffffffffffffff168152602001908152602001600020600082825461198f919061250d565b92505081905550816002600083815260200190815260200160002060006101000a81548173ffffffffffffffffffffffffffffffffffffffff021916908373ffffffffffffffffffffffffffffffffffffffff160217905550808273ffffffffffffffffffffffffffffffffffffffff16600073ffffffffffffffffffffffffffffffffffffffff167fddf252ad1be2c89b69c2b068fc378daa952ba7f163c4a11628f55a4df523b3ef60405160405180910390a4611a506000838361147b565b5050565b828054611a609061267e565b90600052602060002090601f016020900481019282611a825760008555611ac9565b82601f10611a9b57805160ff1916838001178555611ac9565b82800160010185558215611ac9579182015b82811115611ac8578251825591602001919060010190611aad565b5b509050611ad69190611ada565b5090565b5b80821115611af3576000816000905550600101611adb565b5090565b6000611b0a611b0584612468565b612443565b905082815260208101848484011115611b2657611b2561284b565b5b611b3184828561263c565b509392505050565b6000611b4c611b4784612499565b612443565b905082815260208101848484011115611b6857611b6761284b565b5b611b7384828561263c565b509392505050565b600081359050611b8a81612bd9565b92915050565b600081359050611b9f81612bf0565b92915050565b600081359050611bb481612c07565b92915050565b600081519050611bc981612c07565b92915050565b600082601f830112611be457611be3612846565b5b8135611bf4848260208601611af7565b91505092915050565b600082601f830112611c1257611c11612846565b5b8135611c22848260208601611b39565b91505092915050565b600081359050611c3a81612c1e565b92915050565b600060208284031215611c5657611c55612855565b5b6000611c6484828501611b7b565b91505092915050565b60008060408385031215611c8457611c83612855565b5b6000611c9285828601611b7b565b9250506020611ca385828601611b7b565b9150509250929050565b600080600060608486031215611cc657611cc5612855565b5b6000611cd486828701611b7b565b9350506020611ce586828701611b7b565b9250506040611cf686828701611c2b565b9150509250925092565b60008060008060808587031215611d1a57611d19612855565b5b6000611d2887828801611b7b565b9450506020611d3987828801611b7b565b9350506040611d4a87828801611c2b565b925050606085013567ffffffffffffffff811115611d6b57611d6a612850565b5b611d7787828801611bcf565b91505092959194509250565b60008060408385031215611d9a57611d99612855565b5b6000611da885828601611b7b565b9250506020611db985828601611b90565b9150509250929050565b60008060408385031215611dda57611dd9612855565b5b6000611de885828601611b7b565b925050602083013567ffffffffffffffff811115611e0957611e08612850565b5b611e1585828601611bfd565b9150509250929050565b60008060408385031215611e3657611e35612855565b5b6000611e4485828601611b7b565b9250506020611e5585828601611c2b565b9150509250929050565b600060208284031215611e7557611e74612855565b5b6000611e8384828501611ba5565b91505092915050565b600060208284031215611ea257611ea1612855565b5b6000611eb084828501611bba565b91505092915050565b600060208284031215611ecf57611ece612855565b5b6000611edd84828501611c2b565b91505092915050565b611eef816125c8565b82525050565b611efe816125da565b82525050565b6000611f0f826124ca565b611f1981856124e0565b9350611f2981856020860161264b565b611f328161285a565b840191505092915050565b6000611f48826124d5565b611f5281856124f1565b9350611f6281856020860161264b565b611f6b8161285a565b840191505092915050565b6000611f81826124d5565b611f8b8185612502565b9350611f9b81856020860161264b565b80840191505092915050565b6000611fb46032836124f1565b9150611fbf8261286b565b604082019050919050565b6000611fd76025836124f1565b9150611fe2826128ba565b604082019050919050565b6000611ffa601c836124f1565b915061200582612909565b602082019050919050565b600061201d6024836124f1565b915061202882612932565b604082019050919050565b60006120406019836124f1565b915061204b82612981565b602082019050919050565b60006120636029836124f1565b915061206e826129aa565b604082019050919050565b6000612086602e836124f1565b9150612091826129f9565b604082019050919050565b60006120a9603e836124f1565b91506120b482612a48565b604082019050919050565b60006120cc6020836124f1565b91506120d782612a97565b602082019050919050565b60006120ef600c836124f1565b91506120fa82612ac0565b602082019050919050565b60006121126018836124f1565b915061211d82612ae9565b602082019050919050565b60006121356021836124f1565b915061214082612b12565b604082019050919050565b6000612158600f836124f1565b915061216382612b61565b602082019050919050565b600061217b602e836124f1565b915061218682612b8a565b604082019050919050565b61219a81612632565b82525050565b60006121ac8285611f76565b91506121b88284611f76565b91508190509392505050565b60006020820190506121d96000830184611ee6565b92915050565b60006080820190506121f46000830187611ee6565b6122016020830186611ee6565b61220e6040830185612191565b81810360608301526122208184611f04565b905095945050505050565b60006020820190506122406000830184611ef5565b92915050565b600060208201905081810360008301526122608184611f3d565b905092915050565b6000602082019050818103600083015261228181611fa7565b9050919050565b600060208201905081810360008301526122a181611fca565b9050919050565b600060208201905081810360008301526122c181611fed565b9050919050565b600060208201905081810360008301526122e181612010565b9050919050565b6000602082019050818103600083015261230181612033565b9050919050565b6000602082019050818103600083015261232181612056565b9050919050565b6000602082019050818103600083015261234181612079565b9050919050565b600060208201905081810360008301526123618161209c565b9050919050565b60006020820190508181036000830152612381816120bf565b9050919050565b600060208201905081810360008301526123a1816120e2565b9050919050565b600060208201905081810360008301526123c181612105565b9050919050565b600060208201905081810360008301526123e181612128565b9050919050565b600060208201905081810360008301526124018161214b565b9050919050565b600060208201905081810360008301526124218161216e565b9050919050565b600060208201905061243d6000830184612191565b92915050565b600061244d61245e565b905061245982826126b0565b919050565b6000604051905090565b600067ffffffffffffffff82111561248357612482612817565b5b61248c8261285a565b9050602081019050919050565b600067ffffffffffffffff8211156124b4576124b3612817565b5b6124bd8261285a565b9050602081019050919050565b600081519050919050565b600081519050919050565b600082825260208201905092915050565b600082825260208201905092915050565b600081905092915050565b600061251882612632565b915061252383612632565b9250827fffffffffffffffffffffffffffffffffffffffffffffffffffffffffffffffff038211156125585761255761275b565b5b828201905092915050565b600061256e82612632565b915061257983612632565b9250826125895761258861278a565b5b828204905092915050565b600061259f82612632565b91506125aa83612632565b9250828210156125bd576125bc61275b565b5b828203905092915050565b60006125d382612612565b9050919050565b60008115159050919050565b60007fffffffff0000000000000000000000000000000000000000000000000000000082169050919050565b600073ffffffffffffffffffffffffffffffffffffffff82169050919050565b6000819050919050565b82818337600083830152505050565b60005b8381101561266957808201518184015260208101905061264e565b83811115612678576000848401525b50505050565b6000600282049050600182168061269657607f821691505b602082108114156126aa576126a96127b9565b5b50919050565b6126b98261285a565b810181811067ffffffffffffffff821117156126d8576126d7612817565b5b80604052505050565b60006126ec82612632565b91507fffffffffffffffffffffffffffffffffffffffffffffffffffffffffffffffff82141561271f5761271e61275b565b5b600182019050919050565b600061273582612632565b915061274083612632565b9250826127505761274f61278a565b5b828206905092915050565b7f4e487b7100000000000000000000000000000000000000000000000000000000600052601160045260246000fd5b7f4e487b7100000000000000000000000000000000000000000000000000000000600052601260045260246000fd5b7f4e487b7100000000000000000000000000000000000000000000000000000000600052602260045260246000fd5b7f4e487b7100000000000000000000000000000000000000000000000000000000600052603260045260246000fd5b7f4e487b7100000000000000000000000000000000000000000000000000000000600052604160045260246000fd5b600080fd5b600080fd5b600080fd5b600080fd5b6000601f19601f8301169050919050565b7f4552433732313a207472616e7366657220746f206e6f6e20455243373231526560008201527f63656976657220696d706c656d656e7465720000000000000000000000000000602082015250565b7f4552433732313a207472616e736665722066726f6d20696e636f72726563742060008201527f6f776e6572000000000000000000000000000000000000000000000000000000602082015250565b7f4552433732313a20746f6b656e20616c7265616479206d696e74656400000000600082015250565b7f4552433732313a207472616e7366657220746f20746865207a65726f2061646460008201527f7265737300000000000000000000000000000000000000000000000000000000602082015250565b7f4552433732313a20617070726f766520746f2063616c6c657200000000000000600082015250565b7f4552433732313a2061646472657373207a65726f206973206e6f74206120766160008201527f6c6964206f776e65720000000000000000000000000000000000000000000000602082015250565b7f45524337323155524953746f726167653a2055524920736574206f66206e6f6e60008201527f6578697374656e7420746f6b656e000000000000000000000000000000000000602082015250565b7f4552433732313a20617070726f76652063616c6c6572206973206e6f7420746f60008201527f6b656e206f776e6572206e6f7220617070726f76656420666f7220616c6c0000602082015250565b7f4552433732313a206d696e7420746f20746865207a65726f2061646472657373600082015250565b7f4c6f636b656420746f6b656e0000000000000000000000000000000000000000600082015250565b7f4552433732313a20696e76616c696420746f6b656e2049440000000000000000600082015250565b7f4552433732313a20617070726f76616c20746f2063757272656e74206f776e6560008201527f7200000000000000000000000000000000000000000000000000000000000000602082015250565b7f4e6f7420746f6b656e206f776e65720000000000000000000000000000000000600082015250565b7f4552433732313a2063616c6c6572206973206e6f7420746f6b656e206f776e6560008201527f72206e6f7220617070726f766564000000000000000000000000000000000000602082015250565b612be2816125c8565b8114612bed57600080fd5b50565b612bf9816125da565b8114612c0457600080fd5b50565b612c10816125e6565b8114612c1b57600080fd5b50565b612c2781612632565b8114612c3257600080fd5b5056fea26469706673582212206155cc65272c103250a93ff40109375b5fcd75b7d93e720b53ad5d8f0506a19164736f6c63430008070033",
  "devdoc": {
    "kind": "dev",
    "methods": {
      "approve(address,uint256)": {
        "details": "See {IERC721-approve}."
      },
      "balanceOf(address)": {
        "details": "See {IERC721-balanceOf}."
      },
      "getApproved(uint256)": {
        "details": "See {IERC721-getApproved}."
      },
      "isApprovedForAll(address,address)": {
        "details": "See {IERC721-isApprovedForAll}."
      },
      "locked(uint256)": {
        "details": "SBTs assigned to zero address are considered invalid, and queries about them do throw.",
        "params": {
          "tokenId": "The identifier for an SBT."
        }
      },
      "name()": {
        "details": "See {IERC721Metadata-name}."
      },
      "ownerOf(uint256)": {
        "details": "See {IERC721-ownerOf}."
      },
      "safeTransferFrom(address,address,uint256)": {
        "details": "See {IERC721-safeTransferFrom}."
      },
      "safeTransferFrom(address,address,uint256,bytes)": {
        "details": "See {IERC721-safeTransferFrom}."
      },
      "setApprovalForAll(address,bool)": {
        "details": "See {IERC721-setApprovalForAll}."
      },
      "supportsInterface(bytes4)": {
        "details": "See {IERC165-supportsInterface}."
      },
      "symbol()": {
        "details": "See {IERC721Metadata-symbol}."
      },
      "transferFrom(address,address,uint256)": {
        "details": "See {IERC721-transferFrom}."
      }
    },
    "version": 1
  },
  "userdoc": {
    "kind": "user",
    "methods": {
      "locked(uint256)": {
        "notice": "Returns the locking status of an Soulbound Token"
      }
    },
    "version": 1
  },
  "storageLayout": {
    "storage": [
      {
        "astId": 138,
        "contract": "contracts/Soul.sol:Soul",
        "label": "_name",
        "offset": 0,
        "slot": "0",
        "type": "t_string_storage"
      },
      {
        "astId": 140,
        "contract": "contracts/Soul.sol:Soul",
        "label": "_symbol",
        "offset": 0,
        "slot": "1",
        "type": "t_string_storage"
      },
      {
        "astId": 144,
        "contract": "contracts/Soul.sol:Soul",
        "label": "_owners",
        "offset": 0,
        "slot": "2",
        "type": "t_mapping(t_uint256,t_address)"
      },
      {
        "astId": 148,
        "contract": "contracts/Soul.sol:Soul",
        "label": "_balances",
        "offset": 0,
        "slot": "3",
        "type": "t_mapping(t_address,t_uint256)"
      },
      {
        "astId": 152,
        "contract": "contracts/Soul.sol:Soul",
        "label": "_tokenApprovals",
        "offset": 0,
        "slot": "4",
        "type": "t_mapping(t_uint256,t_address)"
      },
      {
        "astId": 158,
        "contract": "contracts/Soul.sol:Soul",
        "label": "_operatorApprovals",
        "offset": 0,
        "slot": "5",
        "type": "t_mapping(t_address,t_mapping(t_address,t_bool))"
      },
      {
        "astId": 1126,
        "contract": "contracts/Soul.sol:Soul",
        "label": "_tokenURIs",
        "offset": 0,
        "slot": "6",
        "type": "t_mapping(t_uint256,t_string_storage)"
      },
      {
        "astId": 2045,
        "contract": "contracts/Soul.sol:Soul",
        "label": "_tokenIdCounter",
        "offset": 0,
        "slot": "7",
        "type": "t_struct(Counter)1588_storage"
      },
      {
        "astId": 2049,
        "contract": "contracts/Soul.sol:Soul",
        "label": "lockedTOkens",
        "offset": 0,
        "slot": "8",
        "type": "t_mapping(t_uint256,t_bool)"
      }
    ],
    "types": {
      "t_address": {
        "encoding": "inplace",
        "label": "address",
        "numberOfBytes": "20"
      },
      "t_bool": {
        "encoding": "inplace",
        "label": "bool",
        "numberOfBytes": "1"
      },
      "t_mapping(t_address,t_bool)": {
        "encoding": "mapping",
        "key": "t_address",
        "label": "mapping(address => bool)",
        "numberOfBytes": "32",
        "value": "t_bool"
      },
      "t_mapping(t_address,t_mapping(t_address,t_bool))": {
        "encoding": "mapping",
        "key": "t_address",
        "label": "mapping(address => mapping(address => bool))",
        "numberOfBytes": "32",
        "value": "t_mapping(t_address,t_bool)"
      },
      "t_mapping(t_address,t_uint256)": {
        "encoding": "mapping",
        "key": "t_address",
        "label": "mapping(address => uint256)",
        "numberOfBytes": "32",
        "value": "t_uint256"
      },
      "t_mapping(t_uint256,t_address)": {
        "encoding": "mapping",
        "key": "t_uint256",
        "label": "mapping(uint256 => address)",
        "numberOfBytes": "32",
        "value": "t_address"
      },
      "t_mapping(t_uint256,t_bool)": {
        "encoding": "mapping",
        "key": "t_uint256",
        "label": "mapping(uint256 => bool)",
        "numberOfBytes": "32",
        "value": "t_bool"
      },
      "t_mapping(t_uint256,t_string_storage)": {
        "encoding": "mapping",
        "key": "t_uint256",
        "label": "mapping(uint256 => string)",
        "numberOfBytes": "32",
        "value": "t_string_storage"
      },
      "t_string_storage": {
        "encoding": "bytes",
        "label": "string",
        "numberOfBytes": "32"
      },
      "t_struct(Counter)1588_storage": {
        "encoding": "inplace",
        "label": "struct Counters.Counter",
        "members": [
          {
            "astId": 1587,
            "contract": "contracts/Soul.sol:Soul",
            "label": "_value",
            "offset": 0,
            "slot": "0",
            "type": "t_uint256"
          }
        ],
        "numberOfBytes": "32"
      },
      "t_uint256": {
        "encoding": "inplace",
        "label": "uint256",
        "numberOfBytes": "32"
      }
    }
  }
}